:020000041000EA
:10100000480500201910001000000000A310001077
:1010100000040100000100001249134A134B00F0C4
:101020001AF8134880471349134A144B00F013F879
:101030001349144A144B00F00EF81449144A0020C6
:10104000521A02DD043A8850FCDC124880471248EC
:101050008047124880479B1A03DD043BC858D05094
:10106000FBDC704780A800100C0000204401002029
:10107000D9740010B8A900104805002048070020C6
:10108000B8AB0010480700203813002038130020A8
:10109000E8180020A11000101DA000109D6600108F
:1010A0007047FEE710B582B06B46354ADA80354BA3
:1010B000354A1A60354B0121C022520099508020D8
:1010C0001A58334C22401A508022120231480260D2
:1010D00031480260812292009950304A8423802155
:1010E000C904D1501DE029498122920088588023EB
:1010F0009B0003438B50294AFC235B00D358002BF1
:10110000F9D0C0239B00D358009380231B02214AAF
:101110001360214A13606B469A1DDB88013B9BB22A
:1011200013806B4606331B889BB2002BDBD1009BE0
:101130000023009305E080231B02164A1360164A21
:101140001360174B1B6C1B0FF5D1104B80215858A7
:10115000C022920202435A5000228531FF315A5078
:1011600084395A500D4B9532FF328039FF399950EE
:1011700083315A580B4802405A5002B010BDC04645
:1011800050460000BC4003480004103F00000348E4
:10119000FFFFFC7FE0400348E440034800040348AD
:1011A00000400348FFFFFFFB00B583B00023124A55
:1011B0001360124A13600321114806F0BFFE114963
:1011C00080228858104B03438B501423019308E06E
:1011D000019B013B019380231B02074A1360074ACE
:1011E0001360019B002BF3D1FFF75CFF0021044843
:1011F00006F0A4FE03B000BDE0400348E44003480D
:1012000000040348000003480000018070B584B06A
:101210005249534806F00AFE5249534D280006F041
:101220004DFE5249524C200006F048FE0321280092
:1012300006F084FE0321200006F080FEFFF7B4FFD5
:101240004C49200006F0B0FE82225200A1588023B3
:10125000DB000B43A350464A84235B00D3589B0614
:10126000F9D5140082256D0053590326B343535119
:1012700053590122134363513F4B1A6888235B0083
:10128000E2503E4A1268E2503D4A1268E2503D4A3E
:101290001268E2503C4A0021200006F0BDFE3B4AA5
:1012A0000121200006F0B8FE394A0721200006F08F
:1012B000B3FE384A0621200006F0AEFE01AC0C2237
:1012C0000021200008F0A2FE2378B343012213433B
:1012D0002370DBB20C2213432370234E2100300015
:1012E00006F062FE72598023DB00134373511E4ADD
:1012F00084235B00D3589B06F9D5140088235B0038
:101300002022E2500132E2500632E250224A00210D
:10131000200006F081FE214A0121200006F07CFE1B
:101320001F4A0721200006F077FE0022012120003D
:1013300006F00CFE0021200006F01AFE0C4D2800DD
:1013400006F00FFE8423E158802252041143E1503D
:10135000E9580A43EA5004B070BDC0464805002071
:10136000000003489005002000040348E405002025
:101370000008034808060020F8050020FC050020AE
:101380000006002004060020A4050020B40500206B
:10139000C4050020D4050020600500207005002051
:1013A0008005002010B500F007F800F029FA10BD04
:1013B00010B5FFF7F7FF10BDF0B5DE4657464E46B5
:1013C0004546E0B585B0DB4D0021280006F0F2F976
:1013D00080235B009A46EB60D749D84E300006F078
:1013E00003FA0523F363053373638021C9042800DE
:1013F00006F0F2F9072399462B61D14A012130000A
:1014000006F033FACF4A0221300006F02EFACE4A17
:101410000321300006F029FA01220121300006F0F4
:1014200009FA01220221300006F052FAA427F359EA
:1014300004221343F35101239B46EB6000243467DD
:10144000F360C249C24E300006F0E5F9C14B736348
:1014500080210905280006F0BFF970232B61BE4AE0
:101460000121300006F001FABC4A0221300006F0EA
:10147000FCF9BB4A0321300006F0F7F901213000E6
:1014800006F0ECF902218846E96034675946F160BC
:10149000B449B54E300006F0A7F9A023F363B34B6F
:1014A000736380218905280006F096F9E021C901BF
:1014B0002961AF4A0121300006F0D7F9AD4A022177
:1014C000300006F0D2F9AC4A0321300006F0CDF925
:1014D0000823EB6034675846F060A025ED05002135
:1014E000280006F021FA5046E860A449A44E3000D6
:1014F00006F02CFAD22080008346F0637464D22078
:10150000C00082460100300006F08BFA8021C90439
:10151000280006F036FA484628619A4A0121300030
:1015200006F04CFA984A0221300006F047FA974A32
:101530000321300006F042FA01220121300006F0BA
:1015400029FA9349300006F093FA34679149924E94
:10155000300006F0FBF95846F063746451463000E1
:1015600006F05FFA80210905280006F00AFA7023C8
:101570002B618A4A0121300006F020FA884A0221B4
:10158000300006F01BFA874A0321300006F016FAF5
:1015900001220121300006F0FDF98349300006F0F8
:1015A00067FA34678149824E300006F0CFF95B4616
:1015B000F36374645146300006F033FA8021490524
:1015C000280006F0DEF9E023DB002B61794A0121D7
:1015D000300006F0F3F9784A0221300006F0EEF907
:1015E000764A0321300006F0E9F90122012130009A
:1015F00006F0D0F97249300006F03AFA34677149C2
:10160000714E300006F0A2F9704BF363704B7364B7
:101610005146300006F005FA80218905280006F0C1
:10162000B0F9E021C90129616A4A0121300006F0C0
:10163000C5F9694A0221300006F0C0F9674A032162
:10164000300006F0BBF901220121300006F0A2F9BA
:1016500000220121300006F0E7F9032202213000C8
:1016600006F0E2F901220521300006F0DDF9F35918
:1016700041460B43F351F35904221343F351F359F9
:101680001C321343F3513467554D280006F024FAF9
:101690002B680326B3432B605249280006F028FA32
:1016A0005149280006F02EFA00220221280006F0F7
:1016B00034FA6B6F042213436B674C494C4D002284
:1016C000280006F035FAEB6950229343EB61EB6991
:1016D0004A4693433343EB61EA6B464B1A408023FF
:1016E0001B011343EB63444B2B610C3602960194B0
:1016F00000943A2300220021280006F019FB1F2342
:1017000005220021280006F043FB1F23052220218B
:10171000280006F027FB2B6CB343424613432B648F
:10172000364806F0B9FC05B0F0BCBB46B246A94647
:10173000A046F0BD0000044870A00010000104485D
:1017400078A000107CA0001080A000108CA00010D9
:1017500000020448FFFF000094A0001098A00010B1
:101760009CA0001034A1001000040448FF040000F5
:101770003CA1001040A1001044A10010A0A0001046
:1017800000010050BCA00010C0A00010C4A00010B8
:10179000B0A00010C8A0001000020050E4A000108B
:1017A000E8A00010ECA00010D8A00010F0A00010DD
:1017B000000300500CA1001010A1001014A1001093
:1017C00000A1001018A10010000400508F060000B6
:1017D0001405000028A100102CA1001030A1001059
:1017E0000000015088A0001084A0001064A0001028
:1017F00000020048FFE0FFFF2181000048A1001027
:1018000010B57F4A7F4C0021200005F0B5FE002274
:101810000021200006F033F97B4A0A21200005F060
:10182000ABFE00220A21200006F029F9774A0D219B
:10183000200005F0A1FE00220D21200006F01FF976
:10184000734A0121200005F097FE002201212000AB
:1018500006F015F96F4A0221200005F08DFE0022E6
:101860000221200006F00BF96B4A0321200005F04D
:1018700083FE00220321200006F001F9674A0421BB
:10188000200005F079FE00220421200006F0F7F880
:10189000634A0521200005F06FFE0022052120008B
:1018A00006F0EDF85F4A0621200005F065FE0022F3
:1018B0000621200006F0E3F85B4A0721200005F02E
:1018C0005BFE00220721200006F0D9F8574A0821C4
:1018D000200005F051FE00220821200006F0CFF87C
:1018E000534A0921200005F047FE0022092120006B
:1018F00006F0C5F84F4A504C0021200005F03CFE90
:1019000000220021200006F0BAF84C4A01212000F4
:1019100005F032FE00220121200006F0B0F8484A0E
:101920000221200005F028FE00220221200006F0FE
:10193000A6F8444A0321200005F01EFE00220321E0
:10194000200006F09CF8404A0521200005F014FE16
:1019500000220521200006F092F83C4A3C4C0A2166
:10196000200005F009FE00220A21200006F087F879
:10197000384A0B21200005F0FFFD00220B2120003A
:1019800006F07DF8344A0221200005F0F5FD002222
:101990000221200006F073F8304A0421200005F0EF
:1019A000EBFD00220421200006F069F82C4A0521F5
:1019B000200005F0E1FD00220521200006F05FF87F
:1019C000284A0621200005F0D7FD0022062120002C
:1019D00006F055F8244A0821200005F0CDFD00222C
:1019E0000821200006F04BF8204A0921200005F0CC
:1019F000C3FD00220921200006F041F810BDC046B9
:101A0000CCA10010000004408CA10010B4A1001073
:101A1000D4A10010DCA10010E4A10010BCA10010B2
:101A2000ACA1001084A100107CA10010ECA100105A
:101A3000F4A10010A4A10010000104409CA100101A
:101A400094A10010FCA10010C4A100106CA1001012
:101A50000002044074A100100CA2001054A1001058
:101A600004A2001014A200105CA1001064A10010D8
:101A700030B585B001A8044B020032CB32C205F06C
:101A80006FFE05B030BDC0461CA2001010B5FFF7B8
:101A90008FFC002010BD70B505000E001C0004ABCB
:101AA00018888D421FD395421ED2521A91B2A0427D
:101AB0000CD2AE1BB6B2201A80B270434B08C018CD
:101AC00005F0EAFF80B2201A80B20DE0AD1BADB286
:101AD000001B80B268434B08C01805F0DDFF80B2E0
:101AE000001980B200E0200070BD70B51D0004AB8D
:101AF0001B7888421DD990421DD2AB420CD2441AA9
:101B0000E4B2E81AC0B26043511AC9B205F0D4FF7A
:101B1000C0B2281AC0B20DE0441AE4B2581BC0B2D9
:101B20006043511AC9B205F0C7FFC0B24019C0B234
:101B300000E0280070BD1800FCE7030008008B429D
:101B400000D21800704710B504000F2A13D81023D4
:101B50009B1A43434A439B1808331B0998B281429E
:101B60000AD1844202D9013080B205E0844203D216
:101B7000013880B200E0002010BD0000002803D032
:101B8000044B20225A607047024B802292035A6015
:101B9000F9E7C04600010440F0B5DE4657464E4620
:101BA0004546E0B587B0F84CE28C01922C23E05C0E
:101BB0005043642105F070FFF44B1880227EF44BF3
:101BC0001A70638BB722A65C9B1BF24A1380C0235A
:101BD000E25CF14B1A708423E75CF04B1F707A08CB
:101BE000EF4B1A707E23E35C002B04D18022A35CB0
:101BF000002B00D16DE2E44C236B9B46E949181C95
:101C000006F032FE06F090FAE74B1880636B9A46B6
:101C1000E449181C06F028FE06F086FAE34B18800B
:101C2000A36B9946DF49181C06F01EFE06F07CFAED
:101C3000DF4B1880E36B9846DA49181C06F014FE57
:101C400006F072FADB4B1880236CD6490293181CFD
:101C500006F00AFE06F068FAD74B1880626CD1498C
:101C60000392101C06F000FE06F05EFAD34B1880BB
:101C7000E56DCC49281C06F0F7FD06F055FAD04B6F
:101C800018802823E05C07F0FDF8041CCD49584675
:101C900006F0EAFD011C201C06F0E6FD06F044FA01
:101CA000C94B1880C749504606F0DEFD011C201CB8
:101CB00006F0DAFD06F038FAC44B1880C1494846F0
:101CC00006F0D2FD011C201C06F0CEFD06F02CFA19
:101CD000BF4B1880BB49404606F0C6FD011C201CC6
:101CE00006F0C2FD06F020FABA4B1880B5490298FA
:101CF00006F0BAFD011C201C06F0B6FD06F014FA31
:101D0000B54B1880AF49039806F0AEFD011C201CAE
:101D100006F0AAFD06F008FAB04B1880A949281C65
:101D200006F0A2FD011C201C06F09EFD06F0FCF949
:101D3000AB4B1880944C2823E35C9800C0184000FB
:101D400007F0A0F8A74906F08FFD06F0EDF9A64BC5
:101D50001880B623E55CAB00ED186D00A34B1D8029
:101D6000A34B1D804F2D00D987E2A24B50221A8031
:101D7000854BD5229B5C002B00D181E29E4BD43A4F
:101D80001A709E4B01321A709D4B0B321A709D4B8C
:101D9000093A1A709C4B06321A709C4B043A1A701E
:101DA0009B4B01321A709B4B043A1A709A4B0632C5
:101DB0001A709A4B1A70744CB823E25C984B1A70E4
:101DC000984B1F70BD23E25C974B1A706923E25C4D
:101DD000964B1A708723E25C954B1A706823E25C7D
:101DE000944B1A706C23E25C934B1A70A27D934B58
:101DF0001A706423E25C924B1A70BC22A25C5A7087
:101E00007023E25C8F4B1A707123E25C8E4B1A7068
:101E10006D23E25C8D4B1A70E27D8D4B1A702B2383
:101E2000E05C019B5843642105F036FE574B188057
:101E30002923E25C874B1A70874B1E80874B1E80DC
:101E4000237D002B00D139E231003C39844A1180D6
:101E5000844A1680844A13704B4B6222995C834AF1
:101E600011707621595C5170C922995C804A1170B9
:101E7000CE22995C7F4A1170CF21595C51707E4A05
:101E800015705C4909885170C522995C7B4A1170B4
:101E90006B22995C7A4A11708F22995C794A117091
:101EA0009021595C51709121595C91709221595C3B
:101EB000D1709321595C11719421595C517189221F
:101EC000995C714A11708A21595C51708B21595C5F
:101ED00091708C21595CD1708D21595C11718E21CA
:101EE000595C5171694A0021117096201E5A76087A
:101EF000F6B2567002301D5A6D08EDB29570023080
:101F00001C5A6408E4B2D4700230185A4008C0B2B7
:101F1000107151719E27DF5D97719F27DF5DD7712B
:101F2000A027DF5D1772A127DF5D57729172A2278C
:101F3000DF5DD772A327DF5D1773A427DF5D5773BB
:101F4000A527DF5D9773D173A627DF5D1774A727D9
:101F5000DF5D5774A827DF5D9774A927DF5DD7740D
:101F6000117556759575D47510765176B120185C3B
:101F70009076B220185CD076B320185C1077B4202D
:101F8000185C507784E0C04614060020C41300207B
:101F900090150020EE06002032150020531300207B
:101FA000521300200000C8426A130020681300206A
:101FB00066130020641300206213002060130020C9
:101FC0005E13002000002041441300204213002033
:101FD000401300203E1300203C1300203A13002041
:101FE00038130020333383404A130020501300205D
:101FF0004C1300204E130020591300205C130020C6
:1020000055130020561300205B13002058130020A6
:10201000541300205A1300205D1300205713002092
:10202000371500205A1500205D150020D01500201E
:1020300038150020DC150020E6150020351500209D
:10204000041600207D1500207E1500207F1500203D
:10205000361500208A150020D6130020D813002042
:10206000DC130020DA130020E71500200C160020F6
:1020700079150020E415002048150020D515002012
:10208000D61500204C150020541500209C1500206A
:102090009177AA20185CD077AB201C5C8B38145445
:1020A0008C301C5C8B3814548C30185C2223D05438
:1020B0000133D1540133D1540133D1540133D154BC
:1020C0000133D15407B0F0BCBB46B246A946A04686
:1020D000F0BD7E4C236B9846181C07F0E7FD0022EC
:1020E0007B4B06F069FF06F037F87A4B1880636B7C
:1020F0000293181C07F0DAFD0022754B06F05CFF16
:1021000006F02AF8744B1880A26B91467349101C94
:1021100006F0AAFB06F008F8714B1880A26C9246F4
:102120006E49101C06F0A0FB05F0FEFF6D4B1880F9
:10213000E26C93466949101C06F096FB05F0F4FF2B
:10214000694B1880226D65490392101C06F08CFBC8
:1021500005F0EAFF654B1880616D0D1C5F49049521
:10216000281C06F081FB05F0DFFF614B1880A16D94
:102170000D1C5A490595281C06F076FB05F0D4FF86
:102180005C4B1880E56D5549281C06F06DFB05F089
:10219000CBFF594B18802823E05C06F073FE041C2B
:1021A0005649404606F060FB011C201C06F05CFB13
:1021B00005F0BAFF524B18805049029806F054FBC4
:1021C000011C201C06F050FB05F0AEFF4D4B1880A3
:1021D0004A49484606F048FB011C201C06F044FB17
:1021E00005F0A2FF484B18804449504606F03CFBDE
:1021F000011C201C06F038FB05F096FF434B1880AD
:102200003E49584606F030FB011C201C06F02CFB12
:1022100005F08AFF3E4B18803849039806F024FBEE
:10222000011C201C06F020FB05F07EFF394B1880B6
:102230003249049806F018FB011C201C06F014FB20
:1022400005F072FF344B18802C49059806F00CFB02
:10225000011C201C06F008FB05F066FF2F4B1880C0
:102260002649281C06F000FB011C201C06F0FCFA85
:1022700005F05AFF2A4B18805CE52A4B1D8077E554
:10228000294B01221A70294B01321A70284B013256
:102290001A70284B01321A70274B01321A70274BE3
:1022A00001321A70264B01321A70264B01321A7015
:1022B000254B01321A70254B1A707CE5244A8C217B
:1022C0001180244A82311180C4E5C04614060020E2
:1022D000000059406E1300206C1300200000C8421B
:1022E0006A13002068130020661300206413002086
:1022F00062130020601300205E13002000002041C4
:1023000048130020461300204413002042130020ED
:10231000401300203E1300203C1300203A130020FD
:10232000381300204E130020591300205C130020A6
:1023300055130020561300205B1300205813002073
:10234000541300205A1300205D130020571300205F
:10235000DC130020DA13002070B5CF4B1B88CF4A66
:102360001288934200D046E3CC4C2380CC4B1B8890
:102370006380CC4B1B78643B2371CB4B1B88637110
:10238000CA4B1B88E380CA4B1B882381C94B1B881F
:102390006381C94B1B88A381C84B1B88E381C84B51
:1023A0001B882382C74B1B886382C74B1D7825750A
:1023B000C64B1B886375C64B1B88A375C54B1B8812
:1023C000E375C54B1B882376C44B1B886383C44BC2
:1023D0001B88A383C34B1B88A377C34B1B88E3775E
:1023E000C24B1A882023E254C14B1A882123E2549D
:1023F000C04B1A882223E254BF4B1B88A384BF4BD7
:102400001B88E384BE4B1A882823E254BD4B1A88EC
:102410002923E254BC4B1A882A23E254BB4B1A8866
:102420002B23E254BA4B1A882C23E254B94B188858
:1024300006F07AFDB84906F04DF82063B74B1888CE
:1024400006F072FDB44906F045F86063B44B188895
:1024500006F06AFDB04906F03DF8A063B14B18885C
:1024600006F062FDAC4906F035F8E063AE4B188823
:1024700006F05AFDA84906F02DF82064AB4B1888E9
:1024800006F052FDA44906F025F86064A84B1888B0
:1024900006F04AFDA04906F01DF8A064A54B188877
:1024A00006F042FD9C4906F015F8E064A24B18883E
:1024B00006F03AFD984906F00DF820659F4B188804
:1024C00006F032FD944906F005F860659C4B1888CB
:1024D00006F02AFD904905F0FDFFA065994B18888C
:1024E00006F022FD8C4905F0F5FFE065964B1A8851
:1024F0006023E252954B1A886223E254944B1A8867
:102500006323E254934B1A886423E254924B1A8853
:102510006523E254914B1A886623E254904B1A8843
:102520006723E2548F4B1A886823E2548E4B1A8833
:102530006923E2548D4B1A886A23E2548C4B1A8823
:102540006B23E2548B4B1A886C23E2548A4B1A8813
:102550006D23E254894B1A886E23E254884B1A8803
:102560006F23E254874B1A887023E254864B1A88F3
:102570007123E254854B1A887223E254844B1A88E3
:102580007423E252834B1A887623E254824B1A88D2
:102590007723E254814B1A887823E254804B1A88BF
:1025A0007923E2547F4B1A887A23E2547E4B1A88AF
:1025B0007B23E2547D4B1A887C23E2547C4B1A889F
:1025C0007D23E2547B4B1A887E23E2547A4B1A888F
:1025D0007F23E254794B1A888023E254784B1A887F
:1025E0008123E254774B1A888223E254764B1A886F
:1025F0008323E254754B1A888423E254744B1A885F
:102600008523E254734B1A888623E254724B1A884E
:102610008723E254714B1A888823E254704B1A883E
:102620008923E2546F4B1A888A23E2546E4B1A882E
:102630008B23E2546D4B1A888C23E2546C4B1A881E
:102640008D23E2546B4B1A888E23E2546A4B1A880E
:102650008F23E254694B1A889023E254684B1A88FE
:102660009123E254674B1A889223E254664B1A88EE
:102670009323E254654B1A889423E254644B1A88DE
:102680009623E252634B1A889823E252624B1A88CF
:102690009A23E252C2E0C04600F000101406002067
:1026A00002F0001004F0001006F0001008F0001016
:1026B0000AF000100CF000100EF0001010F00010E6
:1026C00012F0001014F0001016F0001018F00010B6
:1026D0001AF000101CF000101EF0001020F0001086
:1026E00022F0001024F0001026F0001028F0001056
:1026F0002AF000102CF000102EF0001030F0001026
:1027000032F0001034F0001036F0001038F00010F5
:102710003AF000103CF000100000C8423EF00010FB
:1027200040F0001042F0001044F0001046F000109D
:1027300048F000104AF000104CF000104EF000106D
:1027400050F0001052F0001054F0001056F000103D
:1027500058F000105AF000105CF000105EF000100D
:1027600060F0001062F0001064F0001066F00010DD
:1027700068F000106AF000106CF000106EF00010AD
:1027800070F0001072F0001074F0001076F000107D
:1027900078F000107AF000107CF000107EF000104D
:1027A00080F0001082F0001084F0001086F000101D
:1027B00088F000108AF000108CF000108EF00010ED
:1027C00090F0001092F0001094F0001096F00010BD
:1027D00098F000109AF000109CF000109EF000108D
:1027E000A0F00010A2F00010A4F00010A6F000105D
:1027F000A8F00010AAF00010ACF00010AEF000102D
:10280000B0F00010B2F00010B4F00010B6F00010FC
:10281000B8F00010BAF00010BCF00010764B1A8827
:102820009C23E252754B1A889E23E254744B1A88FB
:102830009F23E254734B1A88A023E254724B1A88E8
:10284000A123E254714B1A88A223E254704B1A88D8
:10285000A323E2546F4B1A88A423E2546E4B1A88C8
:10286000A523E2546D4B1A88A623E2546C4B1A88B8
:10287000A723E2546B4B1A88A823E2546A4B1A88A8
:10288000A923E254694B1A88AA23E254684B1A8898
:10289000AB23E254674B1A88AC23E254664B1A8888
:1028A000AD23E254654B1A88AE23E254644B1A8878
:1028B000AF23E254634B1A88B023E254624B1A8868
:1028C000B123E254614B1A88B223E254604B1A8858
:1028D000B323E2545F4B1A88B423E2545E4B1A8848
:1028E000B523E2545D4B1A88B623E2545C4B1A8838
:1028F000B723E2545B4B1A88B823E2545A4B1A8828
:10290000B923E254594B1A88BA23E254584B1A8817
:10291000BB23E254574B1A88BC23E254564B1A8807
:10292000BD23E254554B1A88BE23E254544B1A88F7
:10293000BF23E254534B1A88C023E254524B1A88E7
:10294000C123E254514B1A88C223E254504B1A88D7
:10295000C323E2544F4B1A88C423E2544E4B1A88C7
:10296000C523E2544D4B1A88C623E2544C4B1A88B7
:10297000C723E2544B4B1A88C823E2544A4B1A88A7
:10298000C923E254494B1A88CA23E254484B1A8897
:10299000CB23E254474B1A88CC23E254464B1A8887
:1029A000CD23E254454B1A88CE23E254444B1A8877
:1029B000CF23E254434B1A88D023E254424B1A8867
:1029C000D123E254414B1A88D223E254404B1A8857
:1029D000D323E2543F4B1A88D423E2543E4B1A8847
:1029E000D523E2543D4B1A88D623E254002D02D160
:1029F000E1225200628370BDBEF00010C0F00010F2
:102A0000C2F00010C4F00010C6F00010C8F00010B2
:102A1000CAF00010CCF00010CEF00010D0F0001082
:102A2000D2F00010D4F00010D6F00010D8F0001052
:102A3000DAF00010DCF00010DEF00010E0F0001022
:102A4000E2F00010E4F00010E6F00010E8F00010F2
:102A5000EAF00010ECF00010EEF00010F0F00010C2
:102A6000F2F00010F4F00010F6F00010F8F0001092
:102A7000FAF00010FCF00010FEF0001000F1001061
:102A800002F1001004F1001006F1001008F100102E
:102A90000AF100100CF100100EF1001010F10010FE
:102AA00012F1001014F1001016F1001018F10010CE
:102AB0001AF100101CF100101EF1001020F100109E
:102AC00022F1001024F1001026F1001028F100106E
:102AD0002AF100102CF100102EF1001030F100103E
:102AE00070B5164B1B78002B14D0012B16D0144B4D
:102AF0001B78002B0DD0134D2C88134B134A1278E2
:102B00005200D05A6043642104F0C6FF80B22418FA
:102B10002C8070BD0A4B01221A70E8E70C4B1B8811
:102B2000002B03D1064B01221A70E0E7074B1B78FC
:102B30002D2BDCD9024B00221A70D8E7D5150020C6
:102B4000D7150020CC130020081400208C1500207D
:102B50000415002010B5194B1B78002B0BD1184B16
:102B60001B88002B07D1174B01221A70164B174AEE
:102B700012781A701DE0134B1B78002B19D0124BE2
:102B80001B78002B16D0104A013B13700E4B1B789C
:102B9000642058430D4B197804F08EFF83B26420F3
:102BA000C01A80B20A4C23885843642104F084FF81
:102BB000208010BD034B00221A70E7E78C1500201F
:102BC00000140020D2150020D11500200907002094
:102BD000CC13002010B5164B1B78002B23D0154AC0
:102BE0001378591C1170DB0703D5134A138801337E
:102BF0001380114B1A88C8239B009A4202D90E4BAE
:102C0000A0221A800C4B1B88DB08DBB20B4A137026
:102C10000B4A1288534364205843A72104F03CFF19
:102C2000084B188010BD044BA0221A80FAE7C0465A
:102C3000EC150020DB150020041400208F15002067
:102C4000CC1300200614002010B50E4B198889B251
:102C5000002912D00C4B1889AB239B00584304F079
:102C60001BFF0A4B18800A4B1B78002B04D0074A25
:102C700099005B185B00138010BD044B00221A8082
:102C8000F1E7C046841800207C13002004150020C2
:102C90000E16002009490A889308D21A92B20A80B7
:102CA000074B1B889B189BB20B809B08054A13801F
:102CB000054A57214B4313807047C046C613002076
:102CC00070180020C8130020EE130020774B9B7C67
:102CD000012B5ED0754B9B7C022B5AD0734B9B7C97
:102CE000052B56D0714B9B7C042B52D0704B00228D
:102CF0001A70704B1A880A2A07D96D4B1B78002B63
:102D00004FD16A4B9B7C032B4BD06B4B002119702E
:102D1000694B1B783C2B03D9684B1978684B1970A9
:102D2000684B1988684B1B88994203D0634B19780C
:102D3000634B19705E4B1978002915D0634B1B88C3
:102D40000A3B9BB291204000834209D8604B18880F
:102D5000AF239B00984203D85E4B1B78002B03D017
:102D60005D4B1878564B18705C4B1B88642B25D92B
:102D70005B4B1B78002B21D100291FD0594B1B78AE
:102D8000013BDBB2812B19D957490B7801330B700A
:102D90001EE0564B1B78002BA8D1454B01221A7020
:102DA000A7E7534B1B78002B03D0524B1B78002B0B
:102DB000ABD141490B7801330B70A9E74A4B002195
:102DC00019703F4B1B78DBB24B4909788B421AD004
:102DD000454B1B78FA2B03D9474B1978384B1970A0
:102DE000464B1B78002B24D15A2A10D92F4B9B7CA1
:102DF000072B0CD02D4B9B7C062B08D040490B8811
:102E000001330B8006E02E4B00211970E0E73C4BAC
:102E1000002119803B4B1B88002B02D0384B00212E
:102E20001980374B1B887D2B03D9374B1978244BDE
:102E30001970364B1B781E2B10D9092A0ED8344A2C
:102E400013780133DBB213700A2B0AD9314B1A788D
:102E50001B4B1A702E4B00221A7002E02C4B0022E2
:102E60001A702D4AC5239B00D3589B109B059B0DC0
:102E70002A4A13800D4A527CD2B229498A5C002A20
:102E800012D0284A1278132A0ED8264901320A7025
:102E90009B080D4A7921525C0532D2B2934203D984
:102EA000214B1A78064B1A707047C0467C130020DD
:102EB000C51500200014002089150020571300209C
:102EC000DD15002000F0001014060020D6130020AD
:102ED000CA130020311500205C130020CE130020FF
:102EE000D41500208C15002041150020331500203A
:102EF000301500207815002055130020DF15002024
:102F0000F2130020041500205A1300203B15002066
:102F1000881500205613002000080348E013002005
:102F2000E4150020E11500205B13002010B52A4BAA
:102F30001B78002B11D0294B1A78C8239B005343D0
:102F40009BB2274A10885843264B19894B00C91851
:102F5000C90104F0A1FD244B1880244B6A229B5C1C
:102F6000002B22D0204B1C88002C07D0204B188827
:102F7000210004F091FD84B26400A4B21D4B1988B5
:102F8000002906D01A4B188804F086FD81B249004A
:102F900089B2194B1B78002B0FD08C4206D2091B2B
:102FA00089B2164A13685B18136010BD611A89B2A2
:102FB000124A13685B1A1360F7E7002CF5D00F4B29
:102FC0001B680F4A9342F0D90C4A1B1B1360064B37
:102FD00000221A80E9E7C046741500208B150020F6
:102FE000841800207C130020021400201406002006
:102FF000F8130020F61300205C150020F8060020CE
:1030000000E1F50510B50D4B18880D4B1B785843A2
:103010000A2104F041FD80B20A4B18800A4B1A685D
:1030200080181860094904F037FD094B1860094BF6
:103030001B68C018084B186010BDC046EC13002078
:103040003B150020E813002024150020907E00008E
:10305000201500201C1500202815002070B582B016
:10306000204B1888C72807D91F4B18221A701F4BEE
:103070000F3A1A7002B070BD1D4E33788008C0B28E
:103080001825009532220A21FEF72FFD164C2070DC
:103090003378184A1078009546221421FEF725FD52
:1030A0002378834201D9104B1870134E33780D4AA0
:1030B00010888008C0B20925009532220A21FEF747
:1030C00014FD0A4C207033780A4A10780095462285
:1030D0001421FEF70AFD23788342CBD9034B1870E5
:1030E000C8E7C046041500200307002001070020A0
:1030F000040700208C1500200207002010B5344B77
:103100001C78344B5B7B002B0ED0334B1B78002B91
:103110000AD1324B1A88324B197878235B1A9A42BB
:1031200002DD2D4B05221A702A4B1B7D002B40D14E
:10313000294B1A78002A03D12A4B1B78002B37D051
:10314000264B1988284B1B784B43544363431B0A77
:103150005801C01A8000C018C000244B198804F020
:103160009BFC84B22409FFF779FF214B1A78A24215
:1031700022D2204B1A70204B88229B5C002B0FD050
:103180001E4B1B78002B1AD01A4B1B78154A12784D
:10319000934201D9134A1370164B124A12781A70CF
:1031A000144B1B78002B0ED0154B164A12781A7050
:1031B00010BDFFF795FCBBE70E4B1C70DBE7094B1E
:1031C00000221A70ECE70E4B00221A70F0E7C0469E
:1031D000991500207C1300208C150020CC130020B2
:1031E00036150020D315002090150020EE13002086
:1031F000FC0600203015002014060020D415002005
:10320000781500200807002070B5334BCA229B5C5C
:10321000002B53D1314B5B7B002B0ED0304B1B78F6
:10322000002B0AD12F4B1A882F4B197878235B1A61
:103230009A4202DD2A4B01221A70284B9B7B002BFD
:1032400002D0274B01221A70264B1B88002B03D07B
:10325000234A1278002A03D1244A1278002A2CD05B
:10326000234A107858433C2104F026FC040085B220
:10327000FFF7F4FE1F4B1A78AA4222D21E4B1A7097
:10328000154B88229B5C002B0FD01C4B1B78002B0E
:103290001AD0194B1B78154A1278934201D9134A58
:1032A0001370154B114A12781A70134B1B78002BB0
:1032B0000ED0134B134A12781A7070BDFFF74AFCF8
:1032C000A8E70D4B1C70DBE7084B00221A70ECE7F7
:1032D0000B4B00221A70F0E7140600207C1300202C
:1032E0008C150020CC13002036150020D3150020AB
:1032F00099150020FC06002030150020D415002070
:10330000781500200807002010B5194B1A78002AFC
:1033100026D0184B1B789B189B10174A1380174B0D
:103320001B78A42B02D8154BA5221A70FFF712FCAC
:10333000124BA5221A70104B1C88114A12881A8051
:10334000FFF78CFE0F4B1A78A2420AD20E4B1A706E
:103350000D4B1B78002B07D00C4B0D4A12781A70BE
:1033600010BD094B1C70F3E7084B00221A70F7E7F9
:103370008C15002099150020CC130020090700208F
:10338000D0130020FC060020301500207815002006
:103390000807002070B5394B5B7B002B0ED0384BF3
:1033A0001B78002B0AD1374B1A88374B19787823B2
:1033B0005B1A9A4202DD324B01221A702F4B9B7B23
:1033C000002B02D02E4B01221A702E4B1888002899
:1033D00003D02B4B1B78002B03D12C4B1B78002BDD
:1033E0003DD02B4B1B785B00FE214900C91A89B2E6
:1033F000284B1B78002B05D0214B1B788B422FD8F4
:10340000C91A89B20A3189B24043081804F044FB52
:10341000040085B2FFF722FE1F4B1A78AA4221D280
:103420001E4B1A701E4B88229B5C002B0FD01D4B2D
:103430001B78002B19D0194B1B78144A1278934231
:1034400001D9124A1370154B104A12781A70134B97
:103450001B78002B0DD0144B144A12781A7070BDD3
:103460000021CFE70D4B1C70DCE7084B00221A70DF
:10347000EDE70D4B00221A70F1E7C0467C130020E7
:103480008C150020CC13002036150020D315002009
:103490009915002079150020FC0600203015002029
:1034A00014060020D41500207815002008070020FD
:1034B00070B5414BCA229B5C002B30D13F4B5B7BEC
:1034C000002B0ED03E4B1B78002B0AD13D4B1A88A7
:1034D0003D4B197878235B1A9A4202DD384B012262
:1034E0001A70364B9B7B002B02D0354B01221A7091
:1034F000334B1E78002E03D1344B1B78002B4ED05B
:10350000304B1D88002D0DD0314B1A78314B9B1854
:10351000587968433C2104F0CFFA84B203E0FFF706
:1035200019FBCBE72C002C4B1B782C4A12786A43F2
:1035300092B2734353431B0A5801C01A8000C0184B
:10354000C000274B198804F0A7FA80B20009844212
:1035500000D20400FFF782FD224B1A78A2421FD24C
:10356000214B1A70144B88229B5C002B0FD01F4BF1
:103570001B78002B17D01C4B1B78144A12789342EF
:1035800001D9124A1370184B104A12781A70164B50
:103590001B78002B0BD0164B164A12781A7070BD90
:1035A000114B1C70DEE7094B00221A70EFE7104B3D
:1035B00000221A70F3E7C046140600207C13002096
:1035C0008C150020CC13002036150020D3150020C8
:1035D000FE0600209C150020991500209015002063
:1035E000EE130020FC06002030150020D41500202A
:1035F000781500200807002030B583B0904BCD220D
:103600009B5C002B00D1C7E08E4B5B7CDBB28E4A0B
:10361000D35C8E4A13708E4A11788E4A127891428A
:1036200000D195E08A490A70854A7821525C002AC7
:1036300000D1B3E0824A1339525C002A00D18BE0FA
:103640009BB2854A1288934200D993E0834B1B7842
:10365000002B00D18EE0824B1B78002B04D1814BD4
:103660001B78002B00D185E07A4B06221A707E4B26
:103670001B78002B18D07C4A002313707B4A1380E0
:103680007B4A13807B4AFA21490011807A4A1380D1
:103690007A4A13807A4B7B4A12789B185B7E9A0099
:1036A0009B185B00784A1380774A6B4B12881B8803
:1036B000D21A93B210B26D4A10806E490A889A18D5
:1036C00012B20A80FA2189008A4200DCADE0694A20
:1036D0001180674C2188591A8AB2674D2980208051
:1036E0009B009BB251005218520092B261490020D7
:1036F000085E81000918C9109B185B181BB25F4A4D
:103700001380002B00DA97E05C4B00229A5EFA23CC
:103710009B009A4203DD594BFA2292001A805B4BC0
:10372000F4221A705A4BAB3A1A705A4B5A4A127812
:103730001A70524B0020185E8010C0B2FE23009316
:103740000023FA220021FEF7D0F9544B187023E031
:10375000424A0121117067E79BB23F4A12889342A7
:1037600008D83E4B1B78002B04D03D4B1B78002B18
:1037700000D079E7394B00221A703B4B01321A70A6
:10378000344B02321A703E4B3E4A12789B189A7A9A
:10379000434B1A70FFF7B8FD03B030BD284AB5217E
:1037A000525C002A2FD0264A5039525C002A17D08A
:1037B0009BB2294A12889342DCD8224B5B7C002BB7
:1037C000D8D1264B1B78002BD4D0254B1B78002B4F
:1037D00000D049E7234B1B78002B00D044E7C9E712
:1037E0009BB21D4A12889342C4D8164B5B7C002BB7
:1037F000C0D11A4B1B78002BBCD0194B1B78002B67
:1038000000D031E7B6E79BB2134A12889342B1D891
:103810000C4B5B7C002BADD1104B1B78002BA9D03F
:103820000F4B1B78002BA5D01EE7002A00DB50E7CA
:10383000104A002111804CE7130000221A8063E730
:10384000140600207C130020481500204615002097
:10385000981500209715002004150020441500201D
:103860008C150020451500204315002074130020FE
:1038700078130020761300207213002070130020AC
:103880009C150020FE0600200215002003070020E2
:103890000107002030150020FC06002078150020CC
:1038A0009915002030B583B03F4AC7239B00D058FC
:1038B00080108005800D3D4B18803D4C7923E15CE4
:1038C0000133E25C4033E35CBB25645D8008009417
:1038D000FEF70BF9374B1870002830D0364B1870B4
:1038E000364B5B7CDBB2364AD35C012B2BD0032BEF
:1038F00031D0314B1878334B1B7800930023FF22D3
:103900000021FEF7F2F8040005002F4B1B788342DC
:1039100013D22E4B1888FE282CD92D4B30221A702A
:103920002C4B273A1A70274B1B78AB4238D2264AC9
:103930001370294B294A12781A7003B030BD1E4B00
:1039400000221A70CCE7264B1B78002BD1D11A4BE2
:1039500000221A70CDE7164BAE229A5C1B4B1B88D7
:103960009A42C6D21E4B1B78002BC2D1124B0022AA
:103970001A70BEE7C0B230230093C433FF2228215F
:10398000FEF7B3F8124B1870104B18780923009308
:103990004033FF222821FEF7A8F80E4B1870C2E72B
:1039A000094B1C70C5E7C04600080348E01300201F
:1039B00014060020E0150020331500207C130020A1
:1039C000E4150020FC06002030150020041500201E
:1039D00003070020010700207815002008070020B9
:1039E0008C15002010B582B0124B1C88A4B2C822DE
:1039F000114B188811230093CF3352002821FEF772
:103A00004AF80E4B1880002C0BD021000C4804F013
:103A100043F8C0B20B4B1870782805D978221A7079
:103A200002E0084B00221A70074B064A12781A70FF
:103A300002B010BD7218002004150020F00600200E
:103A400035DF00008C1500208D15002030B583B0C7
:103A5000104B9B7A002B1AD00E4A937A023BDBB2B2
:103A6000990059184900927A0232D2B29300D218C2
:103A70005200094B1888904202D9084B00241C7050
:103A8000074C237800250095FEF705F8207003B059
:103A900030BDC0467C13002004150020781500209E
:103AA0003015002010B56E4A13780133DBB2137065
:103AB0006C490A780132D2B20A706B490978002940
:103AC0001BD0032B19D9664B00211970664B197056
:103AD000664B1B78002B1AD0012A18D9614B0022A3
:103AE0001A70624B1A70624BDB7CDBB2082B00D978
:103AF000B0E09B005F4AD3589F460029E8D1022BD3
:103B0000E6D9574B1970584B01311970E0E7002B7B
:103B1000E9D1012AE7D9534B00221A70534B0132E5
:103B20001A70E0E7544B1878FEF728F810BD524B96
:103B30001878002804D04C4B1878FEF71FF8F5E7EA
:103B4000FEF71CF8F2E74C4B1878002803D04B4BDB
:103B50001B78002B02D1FEF711F8E7E7434B1878EA
:103B6000FEF70CF8E2E7444B1878002803D0434BEB
:103B70001B78002B06D100280AD03B4B1878FDF7A4
:103B8000FDFFD3E73D4B1878C0B2FDF7F7FFCDE757
:103B9000FDF7F4FFCAE7384B1878002803D0374BFD
:103BA0001B78002B06D1002809D02F4B1878FDF781
:103BB000E5FFBBE72D4B1878FDF7E0FFB6E7FDF713
:103BC000DDFFB3E72D4B1B78002B05D02B4B18786E
:103BD000C0B2FDF7D3FFA9E7274B1878FDF7CEFF5A
:103BE000A4E7264B1B78002B04D0204B1878FDF758
:103BF000C5FF9BE7204B1878FDF7C0FF96E71F4BEA
:103C00001B78002B08D11C4B187800280AD0164BC3
:103C10001878FDF7B3FF89E7184B1878C0B2FDF7A5
:103C2000ADFF83E7FDF7AAFF80E7144B1B78002B5D
:103C300008D1114B1878002809D00B4B1878FDF7E4
:103C40009DFF73E7094B1878FDF798FF6EE7FDF7C6
:103C500095FF6BE7084B1878FDF790FF66E7C046C5
:103C60005315002040150020521500203F1500205C
:103C70007C13002028A2001083150020C618002005
:103C800010B5754B9B7B002B1DD0744B1B781433E8
:103C9000734A1370724B1B78822B02D9704B8222AD
:103CA0001A70704BF4221A706F4BAB3A1A706F4B4C
:103CB00019782820FDF741FF6D4B18706D4B684A4D
:103CC00012781A7010BD654B18786B4B18706B4BDF
:103CD0001B78002B0ED16A4A1288002A0AD1604B49
:103CE00032321A70674B1A70674B00221A80674B8A
:103CF0001A80CFE7002B6FD0614B1B88644A128873
:103D0000934219D2634B04221A70634A1378591CE8
:103D10001170042BBED9524B1A785A4B1B789A4219
:103D200006D24F4B01321A705B4B00221A70B1E77A
:103D3000544A01331370F7E7544909888B4217D26C
:103D40009B1A9B00DBB2534A137053490A78501CEC
:103D5000087093429ED2424B1B784A4A1278934293
:103D600002D23F4A013313704B4B00221A7091E785
:103D70004A4A1288934216D2D31A9B00DBB2454AB4
:103D8000137045490A78501C0870934200D381E7AC
:103D9000334B1B78282B02D9314A013B13703E4B21
:103DA00000221A7076E73B4B04221A703A4A1378C5
:103DB000591C1170042B00D86CE7294B1B78282B59
:103DC00006D9274A013B13702E4A1378013B137022
:103DD000314B00221A705DE72E4B0A221A702E4AD0
:103DE0001378591C11700A2B00D853E72C4B1988F3
:103DF000002925D02A2903D9194A1378013B1370C9
:103E0000214A13885C1C1480092B15D91D4A13788C
:103E10000A3313701A4B1B88584303F04DFE80B2CF
:103E20001A4B18800200143A194B1A8014301B4B9D
:103E30001880124B01221A70174B00221A7029E7C2
:103E4000104B1B78772BF7D805490A7801320A7096
:103E50000C4A01331370EFE77C1300209915002002
:103E60000B0700200307002001070020FC060020AC
:103E700030150020781500200916002008160020B3
:103E8000001400200A07002000150020FE14002066
:103E9000FC140020FD15002002160020FA1400205A
:103EA0000415002010B5A94BC2221A70A84B793A0C
:103EB0001A70A84B00221A70A74B1A70A74BBE327B
:103EC0009B5C002B24D0A64B1B88F52B1DD9A54A43
:103ED0001178C9B2A44A1278D2B2914215D2A34A3B
:103EE0001278002A11D10B33DBB2A14A13705B099F
:103EF000A04A13701378DBB2052B02D913000522F8
:103F00001A709D4B01221A7002E09B4B00221A701E
:103F10009A4B1B78002B20D1994B9B7CDBB2082B52
:103F20003CD89B00974AD3589F46FFF7E7F835E007
:103F3000FFF76AF932E0FFF7E7F92FE0FFF72AFA17
:103F40002CE0FFF7B5FA29E0FFF756FB26E0FFF774
:103F500097FE23E0FEF73EFE20E08B4B1A786423A9
:103F600053431B11DBB27B4A13708F2B02D9130012
:103F70008F221A70854B1B78002B02D0754B0022C4
:103F80001A70834B1B78744A1370824A12789342DA
:103F900001D3714B1A70804B32221A706F4BCE22B4
:103FA0009B5C002B07D0764B5B7CDBB27B4AD35CFF
:103FB000002B00D0C3E0FFF749FD684BD3229B5C88
:103FC000002B13D0674A1278D2B2754909788A4219
:103FD00000D8B7E073490A7801320A70714A127842
:103FE000934203D8704B1A78684B1A706F4B1B784A
:103FF000002B03D16E4B1B78002B03D06A4B1A7831
:10400000624B1A70574B1A789300D2185301694AC1
:104010001360694A11685B18136068490A68013ABD
:104020000A60002A07D19B09654A136040220A6092
:10403000614B00221A60634B1B78002B35D1624B19
:104040001B78002B31D0514B1B78DBB25F4A1278C2
:1040500093422AD04D4B1B78DBB25D4A12789342D3
:1040600023D04A4B1B78DBB24F4A127893421CD0C4
:10407000464B1B78DBB2574A1278934215D0564B09
:104080001B78002B11D0444B1B78002B0DD0534BC9
:104090001B78002B09D13D4B1B78002B00D1A7E0EA
:1040A000374B9B7B002B00D0A2E04D4BC2221A70F5
:1040B0004C4BB93A1A702C4B00221A704A4B1A70AA
:1040C000414B1B78002B00D1CCE03E4A1278002AED
:1040D0002FD12E4A1278D2B23C4909788A4228D090
:1040E0002A4A1278D2B23A4909788A4221D0274A1C
:1040F0001278D2B22C4909788A421AD0234A12780F
:10410000D2B2344909788A4213D0344A1278002A4C
:104110000FD1134A1288002A00D0A3E00D4A12786A
:10412000002A00D09EE0314A128892B2002A00D0C4
:1041300098E0254B00221A7002F0CCFC10BDFFF76E
:10414000B1FB38E7174A0021117047E70307002049
:1041500001070020301500207815002014060020EB
:104160000014002004180020C71800203315002078
:104170007B150020CD180020CB180020DF15002073
:104180007C1300204CA2001000070020DD15002049
:10419000050700200807002099150020E4150020DD
:1041A000FD0600207A150020541300206D17002012
:1041B0006C1700201815002010150020F4060020B0
:1041C00014150020C61800200607002056130020F2
:1041D000571300205B130020FE060020C5180020A6
:1041E0004507002044070020CA1800207818002046
:1041F000284B1B788F2B02D9264B8F221A70254B08
:104200001B7819003231244A1170244A12789342E3
:1042100001D2224A1370224B1A78224B1B789A4201
:1042200001D91F4A1370204B1B78172B02D81E4B45
:1042300018221A701D4B1B78082B02D81B4B092221
:104240001A70194B1A781A4B1A70184B1A78194BA6
:104250001A70124B1A78184B1A70114B1A78174BA8
:104260001A702DE7002B00D068E7154B1B78002B48
:1042700000D063E7134B1B889F2B00D95EE7074BE9
:104280001B78002B00D159E70F4B01221A7002F066
:10429000FDFB53E7FC060020FD0600203015002042
:1042A00078150020080700200307002001070020E0
:1042B0004507002044070020C7180020CA18002026
:1042C000C6180020001400200607002030B583B077
:1042D0006C4B7E229B5C002B09D16A4B48329B5C65
:1042E000002B04D1674B0F329B5C002B06D0664B32
:1042F0001B78452B02D8644B46221A70634BD88832
:1043000064235843572103F0C7FB80B2604B1880E9
:10431000604B1B78642B02D95E4B64221A70594C97
:10432000607D18230093AA3364220021FDF7DDFB92
:10433000594B18702923E05C203B009340336422E2
:104340000021FDF7D2FB554B1870CB23E05CAD3B51
:104350000093E13364220021FDF7C7FB504B187036
:10436000237E504A1370504A1278002A39D0454BA8
:10437000C2229A5C4B4B5A70424BC2229A5C4B4B06
:104380001A70424B197C4A4A1170597D5171597CFF
:104390005170197D9171997DD172597B5172997BC0
:1043A0009173997C434A1170D97C434A1170DB7B2D
:1043B0009B00424A138013889BB2002B0BD01388BA
:1043C000FA208000C01A3E4B1B885843642103F03A
:1043D00063FB3C4B18602B4B9A8B3B4B1A800123A1
:1043E00011E0304A5370C7E75A1E37495200545AF9
:1043F000220224482125405D6043121A120A580007
:1044000042520133DBB2772BEED91E4BBD229B5CAF
:10441000002B02D02D4BBC3A1A701C4B1879642328
:10442000584380B20009C0B2294B1870154CA28CB9
:10443000284B5A43120928490A607422A25A53434E
:104440001B094B60BB23584380B28F2103F024FB30
:1044500080B2224B18801B889BB2BB2B02D91F4B0A
:10446000BB221A80074BB7229A5C1D490A80C021E3
:10447000585C1C4908705B8B9B1A1B4A138003B065
:1044800030BDC046140600205A1500207C130020C1
:1044900042070020361500200407002002070020F4
:1044A0000907002094150020E71500208E15002034
:1044B000641500207515002073150020E2130020FC
:1044C000C41300201C150020081400205C150020D7
:1044D0002E150020A086010008150020EC06002003
:1044E000DE13002032150020EE06002003004343B7
:1044F0004B4343431B0C80225200521A5043C018B6
:104500008030000A704770B5040000290CD00028E4
:104510000BDB80235B00984200DD1800002906DBDE
:10452000FFF7E4FF002C0ADB70BD4042F1E749428F
:1045300080256D00281AFFF7D9FF281AF2E74042BC
:10454000F2E7000010B54C4B1B78772B1CD94B4B76
:104550001A884B4B1A804B4B1A884B4B1A804B4B8B
:1045600000211980454B1B889BB29A4233D29B1A7B
:104570009800C0184001464B198803F08DFA80B2AC
:10458000A0282CD9A0202AE03C4B188880B2414CAE
:1045900021880422FDF7D7FA2080374A13780133A7
:1045A000DBB21370782B02D0354B1880D3E73A4B2F
:1045B0001B78002BF8D0394B1B88984207D9384B11
:1045C0001B88984203D2374B00221A70ECE7354B18
:1045D00001221A70E8E7344B00221A800020334B86
:1045E000197814290AD0002922D0002820D0304B75
:1045F000188803F061FA2C4B18801FE02D4B1B88A4
:1046000083420BD2C31A9BB2632B0AD8264C284B89
:104610001888142103F040FA20800FE01B1A9BB287
:10462000F2E7214C21880522FDF78DFA208005E074
:104630001D4C21880522FDF786FA20801E4B1B7831
:10464000143B5900C9188900174B1888FFF75BFF06
:1046500083B20E4A1380194A1380194A1380194AEB
:104660001078584380B2184B1B785843602103F0F0
:1046700013FA164B188010BD951300206E180020F9
:10468000CA130020DE130020D6130020CC13002014
:10469000EE060020D8130020E7150020DC130020D0
:1046A000DA13002031150020D21300202C15002031
:1046B000C21300209613002032150020D0130020D2
:1046C000CE130020901500208C150020FE13002032
:1046D00070B5284B1B785BB2002B16DB254B0022F4
:1046E0001A70254B1B889BB2244A12889A4217D213
:1046F0009B1A9800C0184001214B198803F0CCF98F
:1047000080B2A0280DD9A0200BE01A4A0023137014
:104710001C4A13701C4A13801C4B00221A701DE0A7
:1047200000201A4B1B781A4A59008C5A194D2C80BC
:104730008852154A1188401880B21080114A1278A8
:10474000142A0CD00F4901320A700133DBB20F4A30
:104750001370132B02D9130000221A7070BD84420B
:1047600003D2094A001B1080EFE7074A002111809D
:10477000EBE7C046CF1800206E180020D6130020AB
:10478000EE0600202C150020C21300202D1500205D
:1047900098130020961300201E4A8A235B00D358EA
:1047A0001B070AD48E235B00D358DBB21A4A127857
:1047B000D1B2002A02D0012915D07047592B05D05B
:1047C000164B00221A70144B1A70F6E7134A117830
:1047D000C9B21348435413780133DBB213700E4B44
:1047E00001221A70E9E70D4A1178C9B20C48435406
:1047F00013780133DBB213701378DBB2062BDCD9EC
:10480000130000221A70044B1A70064B01321A7002
:10481000D3E7C04600020048DA150020CF1500207B
:10482000C81500209615002070B5BC4B1B78002BD6
:1048300001D100F0A0FCBA4B43221A70B94B002200
:104840001A70B94A137801218B431370B74B7E223B
:104850009B5C002B04D1B54B02329B5C002B6ED0CD
:10486000B34B1A78072A0CD89300B24AD3589F4604
:10487000AD4A137801210B43DBB21370A84B002221
:104880005A70AA4B7F229B5C002B00D195E0AA4B6B
:1048900019881A78A24BDA70A84B1B88994200D36A
:1048A00087E09B1ADBB29E4A137102F0FFFE892358
:1048B0005B00984200D3B2E0A14B00221A70A04BDB
:1048C0001B78502B03D99F4B1A78964B1A709E4B2E
:1048D0001B78DBB29D4A1278934200D1A5E09A4B37
:1048E0001B78002B00D1A2E08E4B1B78002B00D050
:1048F0009DE0954B1B78DBB28A4A137097E0884B9A
:1049000000225A70BDE7864B02225A70B9E7844BE9
:1049100006225A70B5E7824B09225A70B1E7804BE4
:104920000C225A70ADE77E4B0C225A70A9E77C4BE3
:104930000C225A70864B1A787A4B1A70A1E77C4B7E
:104940001A78092A9DD89300824AD3589F46764AFE
:10495000137801210B43DBB21370714B00225A70A4
:104960008FE76F4B00225A708BE76D4B02225A7013
:1049700087E76B4B04225A7083E7694B06225A7013
:104980007FE7674B08225A707BE7654B0A225A7013
:1049900077E7634B0C225A7073E7614B0C225A7015
:1049A0006FE75F4B0C225A70694B1A785D4B1A7097
:1049B00067E75B4B00221A7177E75C4BC6229B5C72
:1049C000002B09D1594BD5229B5C002B16D1544B9F
:1049D0004622DA701A7168E75F4B1B78504CE3701F
:1049E0005E4D29885E4B1888B93AFDF7ACF82880EF
:1049F000642103F051F8C0B2207156E7484C0023FF
:104A0000E370564D2988564B1888CD3AFDF79BF830
:104A10002880642103F040F8C0B2207145E702F01D
:104A200045FE1138464B187049E73E4B1A703D4B16
:104A30001B78002B00D1A3E04A4B1B78002B00D041
:104A40009EE03A4B80229B5C002B45D0354B1B7877
:104A5000DBB2454A127893421AD0324B1B78DBB254
:104A60003B4A127893421CD02E4B1B78DBB23F4A54
:104A7000127893421ED02B4B1B78DBB23C4A127843
:104A8000934220D0274B1B78DBB2254A5371B9E003
:104A9000384B1B78002B00D1B4E0214B08225A710F
:104AA000B0E0344B1B78002B00D1ABE01C4B06224E
:104AB0005A71A7E02F4B1B78002B00D1A2E0184BB6
:104AC00003225A719EE02B4B1B78002B00D199E0FA
:104AD000134B04225A7195E0144B7E229B5A002BF3
:104AE00004D1124B57329B5C002B11D0224B1B7808
:104AF000002B03D1214B9B7B002B03D0084B0022C2
:104B00005A717FE0074B1B78DBB2054A537179E09D
:104B1000044B1B78DBB2024A537173E0741500201A
:104B2000F41500205E1500200F160020140600204A
:104B30003C15002070A20010D8130020CA130020DA
:104B4000DE15002058130020DD150020561300202C
:104B50005913002090A200103B150020E6130020FE
:104B6000E81300205F1500205D1300205B13002078
:104B700054130020521500203A1500207C13002009
:104B8000BD4B1B78002B3AD0BC4BD5229B5C002B35
:104B900007D0BB4B1B78022B20D0032B22D0012B3C
:104BA00018D0B84B1B78002B24D1B54B1B78002BA9
:104BB00020D0B54B1B7C002B03D1B44B1B78002BB2
:104BC00018D1B34B1B78002B10D0AB4B1A78B14BDC
:104BD0005A7117E0A84BD43A1A70E2E7A64B0222AA
:104BE0001A70DEE7A44B04221A70DAE7A94B002200
:104BF0005A7107E0A04B1A78A64B5A7102E0A54BF8
:104C000000225A71A44B1B78002B00D16BE2A34BFE
:104C10001B78002B00D17AE0A14B1B78002B59D0D8
:104C2000A04CA14DA14B18880A2102F035FF0100CC
:104C3000288889B202F030FF20809A4B1B88002B15
:104C400000D14BE2D9B2934A91711B0AD3718B4BBD
:104C500082229B5C002B05D0954A137804210B43DC
:104C6000DBB21370854B81229B5C002B25D0914BCE
:104C70001B88002B00D157E28D4A137880214942CE
:104C80000B43DBB213708C4B1B889BB2A02212012A
:104C9000934200D84EE2864A137840210B43DBB2A0
:104CA0001370834B1B783F22934300D148E2804A24
:104CB000137804210B43DBB213707D4B1A781F214C
:104CC0000A4074498A701A783B210A401A700022FF
:104CD000002341E2794B1B78002B0BD0784B1978DD
:104CE000714B188802F0E8FE6E4B8200801840007D
:104CF0001880A2E7734B1B78002B9ED0694C6A4A40
:104D0000714B1088198802F0C7FE208095E76F4B21
:104D10001B78002B3AD06E4A1278002A36D1012B2C
:104D200005D0022B1FD05F4B00221A8085E7534B22
:104D3000B9229B5C012B09D0664B198889B2594C6A
:104D4000594B188802F0A8FE208076E7614B19883D
:104D500089B2554B188802F09FFE8300C0184000AE
:104D6000504B188069E7454B2B22985C5A4B1B88A7
:104D70005843642102F090FE81B2584B1980494C8F
:104D8000494B188802F088FE208056E7544B1A7869
:104D9000544B1B789A4223D83949097800291FD0EF
:104DA0003A480078012803D94F4C2478002C17D0BA
:104DB00001394E4B8A0052189B181B5C002B0AD0FD
:104DC000012B00D039E7374C374B1888692102F0A6
:104DD00063FE208031E7334B334A12881A802CE778
:104DE0009A4207D826490978002903D0274909782B
:104DF000042911D09A421BD8214B1B78002B17D0C5
:104E00003B4B1B78642159430531274B188802F02E
:104E100053FE244B188010E7364B1B786031594302
:104E20000531214B188802F047FE1E4B188004E71D
:104E3000314B324A12789B5C0C2B00D9FDE69B006B
:104E40002F4AD3589F460D4BB9229B5C012B07D0AC
:104E5000144C154B1888002102F01EFE2080ECE651
:104E6000114B1888002102F017FE8300C018400083
:104E70000C4B1880E1E6C0465F15002014060020A8
:104E800087150020851500207C130020FE060020D9
:104E900052150020F41500205C150020E8150020B4
:104EA000EC150020F6130020F81300200614002053
:104EB0000F1600200214002078180020761500201C
:104EC000EF15002077150020F81400205D15002054
:104ED000D9150020E2130020EC130020EA13002073
:104EE000841500205A1500205B1500206415002051
:104EF00075150020731500204C1500204A15002060
:104F0000B8A20010A34BB9229B5C012B09D0A24B85
:104F1000198889B2A14CA24B188802F0BDFD2080EF
:104F20008BE69D4B198889B29D4B188802F0B4FD21
:104F30008300C0184000994B18807EE6954B2B22C9
:104F4000985C984B1B885843642102F0B5FD81B2F0
:104F5000954B1980914C924B188802F09DFD208052
:104F60006BE68F4B1888914B197802F0A5FD8B4B9F
:104F7000188062E68E4C21888E4B18880D22FCF733
:104F8000E2FD2080834BB9229B5C012B0BD0834C2C
:104F9000834D0A2102F080FD0100288889B202F0C9
:104FA0007BFD208049E67D4C7D4B1B88010018006D
:104FB00002F072FD208040E6784C794B7E4A1188E1
:104FC0001888890802F068FD208036E6734C744A20
:104FD0007A4B1088198802F05FFD20802DE66D4B1A
:104FE000B9229B5C012B0AD0754B1978632912D921
:104FF0006B4B188802F060FD684B18801DE6684B0B
:1050000018886F4B197802F057FD644B82008018A6
:105010004000188011E6624B188802F04DFD5F4B8E
:10502000820080184000188007E6664C2188664B95
:1050300018880D22FCF787FD2080584C584D0A2116
:1050400002F02AFD0100288889B202F025FD2080A7
:10505000F3E5524C524A5D4B1088198802F01CFD52
:105060002080EAE54B4BB9229B5C012B0CD0584BBE
:1050700018680A2102F010FD81B2484C484B18888C
:1050800002F00AFD2080D8E5514B1988434C444B6F
:10509000188802F001FD2080CFE5404C404A4D4B7E
:1050A0001088198802F0F8FC2080C6E54A4B1B885E
:1050B00080331B1264205843FE2102F0FDFC81B2B4
:1050C000013989B2454B1980354B188802F0E4FC50
:1050D0008300C0184000314B1880AEE5404B0722DA
:1050E0009A71DA71B3E53F4B1888002817D0294B25
:1050F000D1229B5C002B0CD000010A2102F0DCFCC9
:1051000080B2394B1880C2B2354B9A71000AD871FF
:105110009DE5C2B2324B9A71000AD87197E5304BC7
:1051200007229A71DA7192E5304A13787F210B4099
:105130001370A8E52D4A137840218B431370B0E516
:105140002A4A137804218B431370B6E52449C95CBD
:105150008A18D2B20133DBB2072BF7D9204B1A726F
:10516000234A8A235B00D3581B0E7F221A401E233A
:105170009B1A092B00D870BD0023082BFBD8184AB6
:10518000D25CD2B21A48C021490042500133DBB28E
:10519000F3E7C04614060020E2130020F6130020B7
:1051A000F8130020EC130020EA1300203B15002028
:1051B000E6130020E8130020E0130020CA130020AB
:1051C0008C150020FC130020FE130020CC130020BF
:1051D000281500200014002078180020FA13002061
:1051E000F415002002140020F41300200F160020F4
:1051F00000020048F8B504000F0015001E000B4B1C
:1052000018888300C0184000094B2822995C02F0DE
:1052100053FC0004000C801B7843A91B083102F0EA
:105220004BFC80B2001980B2F8BDC046F0130020DC
:105230001406002010B5484B7E229B5C002B04D145
:10524000454B02329B5C002B37D0444B1A78072A1F
:1052500003D89300424AD3589F46002079E0414B3F
:105260001B88414A1288FA210120FFF7C3FF70E032
:105270003D4B1B883D4A1288FA21FA20FFF7BAFFFE
:1052800067E03A4B1B883A4A1288FA20FA2140001C
:10529000FFF7B0FF5DE0364B1B88364A1288FA21D3
:1052A0003548FFF7A7FF54E0FA20800051E0FA20CC
:1052B00080004EE0FA2080004BE0284B1A78092A43
:1052C00003D893002D4AD3589F46002041E0254B38
:1052D0001B88254A1288A7210120FFF78BFF38E0A1
:1052E000214B1B88214A1288A721A720FFF782FFA4
:1052F0002FE01E4B1B881E4A1288A720A7214000C2
:10530000FFF778FF25E01A4B1B881A4A1288FA200B
:10531000A7214000FFF76EFF1BE0164B1B88184AC1
:105320001288A7211748FFF765FF12E0144B1B886E
:10533000154A1288A7211548FFF75CFF09E0FA20FB
:10534000800006E0FA20800003E0FA20800000E000
:105350000A2010BD0A20FCE7140600203C1500209E
:10536000ECA200105E1300206013002062130020E6
:105370006413002066130020EE0200000CA300104E
:10538000681300209B0200006A1300204203000003
:1053900070B5B24B1888642102F07EFB84B2B04D28
:1053A000298804222000FCF7CEFB2880AD4B1B7817
:1053B000DBB2012B38D9AC4B00221A70AB4C2188E0
:1053C00089B2AB4B18880322FCF7BDFB2080A94BA8
:1053D0007E229B5C002B05D1A64B02329B5C002BEE
:1053E00000D172E0A14B1B889BB2A34A1288934262
:1053F00025D9A24B07221A70A14B1B78002B00D194
:10540000D1E0A04B1A789D4B19788A4200D1C3E0B5
:105410009D480378013303709B4B1B78632B00D8A6
:10542000BEE0984B1970C2E08F4A11784B1CDBB27A
:105430001370142BC2D98E4B1C801170BEE78B4B9E
:105440001B889BB2914A1288934203D98B4B062248
:105450001A70D1E7854B1B889BB28D4A1288934204
:1054600003D9864B05221A70C6E7804B1B889BB276
:10547000884A1288934203D9804B04221A70BBE7F2
:105480007A4B1B889BB2844A1288934203D97B4B88
:1054900003221A70B0E7754B1B889BB27F4A1288B3
:1054A000934203D9754B02221A70A5E76F4B1B88F4
:1054B0009BB27B4A1288934203D9704B01221A7027
:1054C0009AE76E4B00221A7096E7684B1B889BB2D6
:1054D000744A1288934203D9684B09221A708BE7E9
:1054E000624B1B889BB2704A1288934203D9634B6C
:1054F00008221A7080E75D4B1B889BB25E4A1288B7
:10550000934203D95D4B07221A7075E7574B1B88EE
:105510009BB25E4A1288934203D9584B06221A70F6
:105520006AE7524B1B889BB2594A1288934203D9AF
:10553000524B05221A705FE74C4B1B889BB2554AB1
:105540001288934203D94D4B04221A7054E7474BFB
:105550001B889BB2504A1288934203D9474B0322BF
:105560001A7049E7414B1B889BB24C4A1288934200
:1055700003D9424B02221A703EE73C4B1B889BB278
:10558000474A1288934203D93C4B01221A7033E7F1
:105590003A4B00221A702FE73B4B002018703BE774
:1055A000364B1A7003E0374B344A12781A703F4B6F
:1055B000DB7D022B4CD03E4B1B68642058433D4B97
:1055C000198802F069FA80B2FA239B00984200D948
:1055D0001800FA239B001B1A9BB2374A1380284BF2
:1055E0001B78002B00D195E0344B1B78002B00D0AA
:1055F00090E0204B84229A5C314B1B789A4200D871
:1056000083E00133DBB22E490B702E490978002963
:105610000FD1134908882C490988884209D926499D
:10562000FA208000088029490020086025490130BF
:1056300008702449097800296CD15208934269D333
:105640001A4BDB7D002B43D01E4B01221A7061E008
:10565000FFF7F0FD184B1880C1E7C046EE1300209D
:10566000EC1300200418002007070020F01300208E
:10567000E413002014060020441300203C150020F1
:10568000741500203E1500203D1500204213002017
:10569000401300203E1300203C1300203A1300204A
:1056A0003813002048130020461300207C130020EC
:1056B00028150020C4130020E2130020D915002073
:1056C000D8150020C41800204A1300201C15002003
:1056D000FFF7B0FD02009632124B1B889BB29A4234
:1056E00004DB104B1B889633984213DD0D4B18805A
:1056F0001B88FA208000C01A0B4B1B88584364217A
:1057000002F0CAF9094B186004E0094B01221A7033
:10571000084B1A70034B1B889B08DBB2064AD373F5
:1057200070BDC046E2130020C41300201C150020E9
:10573000D9150020C41800207C13002070B5AC4A95
:10574000137801331370AB4A137801331370AA4AEC
:10575000137801331370A94A137801331370A84BDF
:105760001B78002B17D170BDA649C95C8A18D2B22C
:105770000133DBB2052BF7D9A24B9B79DBB2934205
:105780000CD09F4B00221A709A4B1B78032BEAD93E
:105790009D4B1A70E7E700220023EBE7954B0020B2
:1057A0001870984B5A7801210A4098490A70597824
:1057B00020242140964C21705B7821218B43954910
:1057C0000870102B23D00ED8042B00D1A2E0082B98
:1057D00003D18D4B042119701CE0022B1AD18A4B86
:1057E0000221197016E0402B00D18FE0802B11D1DF
:1057F000894BD6215B5C012B00D18FE0022B09D1B4
:10580000814B04211970834B0339197002E07E4BE0
:1058100000211970814B1B78002B03D1804B7A49F2
:10582000097819707D4B01211970002A00D16AE1B5
:105830007C4B1B78002B00D024E17B4B1B7C002B86
:1058400004D1714B1B78002B00D01BE1774B1B78E8
:10585000002B00D016E1764B1B78002B02D1744B45
:1058600001221A70734B01221A70734B1B78002BA4
:1058700026D1714B1A70714A13780133DBB2137061
:10588000032B02D9130001221A706D4B00221A70EB
:105890005D4B1B78012B5DD0042B76D0002B43D0C1
:1058A000664B1B780133DBB2664A1370664A13708D
:1058B000664B01221A70504B00221A704F4B1A701F
:1058C0004D4B1B78624A11788B420BD24E4B1A78A3
:1058D000534B1B789A4200D1D7E05E4B1B78002BCC
:1058E00000D0D2E04F4B01221A70524A00231370AD
:1058F000514A1370514A1370404A1170464A84212C
:10590000515C3D4A11704F4A1370BEE03E4B01217D
:1059100019707FE73C4B032119707BE73A4BD5396F
:1059200019703C4B197075E7444B1B78022B09D05A
:10593000032BB5D1484B1A783B4B5A755A7D474BD0
:105940005A71ADE7464B1A78374B1A741A7C434BA1
:105950001A70A5E7394B1B78022B0ED0032B9FD171
:10596000404B1A78304B1A75197D3C4A91713E496B
:10597000097899759B7DD37292E73C4B1A782A4B34
:105980005A745A7C354B5A708AE72C4B1B78022B81
:1059900015D0032B84D1364B1B78092B1FD0354BE8
:1059A0001A78214BDA74DA7C334B1A70334B1B783C
:1059B0000A2B00D074E7224B01221A7070E72C4B9F
:1059C0001B78092B00D06BE72A4B1A78164BDA7438
:1059D000DA7C294B1A701A4B01221A7060E7284BA7
:1059E0001A78114B5A735A7B1C4B5A72DEE7C04629
:1059F000001600209413002080150020841500203C
:105A000096150020C8150020FE0600207C150020F9
:105A1000FE15002034150020140600207415002007
:105A2000FF060020811500207C130020E8150020CF
:105A3000D91500208215002085150020871500202B
:105A40005B1500205F150020601500205C1500200C
:105A50005A15002039150020381500206415002043
:105A6000D0150020D6150020E6150020DC150020FA
:105A70007D1500207F150020731500207E15002065
:105A800035150020B24B01221A70B24B1B78B24A76
:105A9000127893420DD2B14B1978B14B1B789942D1
:105AA00014D0B04B1B78002B10D1AF4B1B78002BC0
:105AB0000CD1AE4900230B70AD490B70A5490A709B
:105AC000AC4A1370AC4A1370AC4A1370A94B1B78E4
:105AD000002B00D191E0AA4B00221A70A94B1B7C2D
:105AE000002B03D0A84B1B78002B04D09B4B1B78BA
:105AF000002B00D081E0994B1A78042A7AD89300C1
:105B0000A24AD3589F46924B1B78002B0ED1974B3D
:105B10001B78002BB9D0954A002313709C4A137050
:105B20008C4A1370934B01221A70AEE7884B002207
:105B30001A70AAE78E4B1B78022B10D0032B1BD0B8
:105B4000012B57D18F4A117C924B1970137C59420B
:105B50004B41DBB21374127C8F4B1A704AE0894AB6
:105B6000517D8E4B1970537D59424B41DBB25375B9
:105B7000527D894B5A713DE000F074FD3AE07C4B58
:105B80001B78022B10D0032B1BD0012B32D17D4A66
:105B9000517C834B1970537C59424B41DBB2537497
:105BA000527C7D4B5A7025E0764A117D7D4B1970F1
:105BB000137D59424B41DBB21375127D764B9A71BE
:105BC00018E0704A917D784B1970937D59424B4192
:105BD000DBB29375927D704BDA720BE0644B1B78ED
:105BE000022B29D0032B2BD0012B21D0654B9A7C83
:105BF0006E4B1A70604B01221A706D4B7E229B5ABD
:105C0000002B05D16A4B57329B5C002B00D1E2E0A0
:105C1000564B1B78002B00D184E04E4B1A78654B15
:105C20001B789A4200D2D6E0544B00221A70D2E080
:105C3000544B01229A74D9E7524B02229A74D5E749
:105C4000504B03229A74D1E7494B1B78022B0CD09E
:105C5000032B0ED0012B04D04A4B9A7C534B1A7065
:105C6000C8E7484B04229A74F6E7464B05229A741B
:105C7000F2E7444B06229A74EEE73D4B1B78022B69
:105C80001CD0032B37D0012B04D03E4BDA7C4A4B7F
:105C90001A70AFE73B4BD97C484A1170DB7CDBB212
:105CA000434A6D21525C934202D0364BDA74ECE7E2
:105CB0003F4B6F229A5C334BDA74E6E7404B1B781C
:105CC000092B08D03A4B70229A5C2E4BDA74DA7C9E
:105CD0003A4B1A70D9E72B4A517B3A4B1970537BD8
:105CE00059424B41DBB25373527B2B4B5A72244BBC
:105CF00001221A70C9E7344B1B780A2B05D02C4BB4
:105D000071229A5C1F4BDA74BFE71E4A937B59429B
:105D10004B41DBB29373927B1F4B9A73184B01225A
:105D20001A70B2E70B4B1978214B84229A5C214BF5
:105D30001B78D31A99424BDB914249D20C4B1B780A
:105D4000002B45D00D4B214A12781A7043E0C04613
:105D500081150020841500205A150020FE06002021
:105D6000FF060020E81500203915002085150020C9
:105D700087150020861500205C1500205F15002087
:105D80005B1500207C1300203415002034A3001084
:105D900082150020D0150020641500203815002041
:105DA000DC150020D6150020E61500207515002012
:105DB0001406002052130020731500207F150020C8
:105DC0007D150020351500207E150020601500206F
:105DD000C74B00221A70C74B00221A70C64B9B7C1F
:105DE000082B2BD0C54B1B78002B04D0C44A12784B
:105DF000002A00D10EE1002B00D121E1C04A127827
:105E0000002A00D11CE1BC4A127C002A00D117E113
:105E1000BC4A1278002A00D012E1BB4B01321A7042
:105E2000BA4B1A70B44B9B7C082B03D0B24B9A7CB4
:105E3000B74B1A70B04B08229A7404E2B14B1B782E
:105E4000002B17D0B24B1A78AB4B9A74AE4A002392
:105E50001370AE4A1370AF4A1370AF4A1370AF4A53
:105E60001370AF4A1370AF4A1370AF4BAF4A12783A
:105E70001A70E8E1AC4B00221A70AA4B01321A707A
:105E8000A54B1B78002B4AD0A54B1A709B4B1B7857
:105E9000002B02D1A64A01211170002B07D0A44B80
:105EA0001B78002B03D0A34B01221A7016E0A14BE4
:105EB0001B78002B0FD0A04B1C782001201840002D
:105EC0008D4D297BC9B201F0F7FD9C4B18702C73E6
:105ED000974B00221A70974B00221A70984A137839
:105EE0000133DBB21370974A8421525C520893420B
:105EF00007D3934B00221A70934A137859424B41AF
:105F00001370914B1B78002B04D0904B8B4A127866
:105F10001A7098E1784B1A7B8C4B1A7093E17D4B89
:105F20001B78002B4ED08A4B1D888A4B1C882A1B5D
:105F300093009B181801C01A642101F0BDFD81B2C5
:105F4000611889B2091B844801F0B6FDC0B26A4BE2
:105F50001873824A222111700122DA7200229A7586
:105F60007F4A13780133DBB21370764A6231525C98
:105F70005208934207D37A4B00221A70794A137859
:105F800059424B411370774B1B78002B17D0764B3F
:105F90001C805A4B1B78002B02D1654A01211170DD
:105FA000002B00D14FE1624B1B78002B00D14AE15E
:105FB0005F4B00221A70584B01321A7043E16A4B52
:105FC0001D80E6E7514B1B78002B00D13BE1534B82
:105FD00001221A70654B1B88634A13805C4A128841
:105FE000934201D95A4A1380444B1A78002A02D1AD
:105FF0004F4B01211970002A00D124E14C4B1B7832
:10600000002B00D11FE14A4B00221A70414B013294
:106010001A7018E1FFF70EF9554B18801B88FA200B
:106020008000C01A534B1B885843642101F034FD93
:10603000514B1860514B01221A703A4B1A7002E111
:106040002D4A927C062A1BD02E4A1278002A00D1B3
:10605000F4E03C498820095C002922D0002B1DD0A7
:1060600027490978002919D045490978002915D10F
:1060700044490978002911D043498738087010E055
:10608000002B07D01E4B1B78002B03D03F4B053A4B
:106090001A70D8E03D4B00221A70D4E03A49002033
:1060A000087028496420095C002900D1CBE0002B4E
:1060B00070D0134B1B78002B6CD0334B1B78002B0C
:1060C00068D10D4B5B7CDBB23149CB5C002B61D0DE
:1060D0002B4B1B78002B00D0B5E0294B01221A7006
:1060E000054B997C0A4A117007229A74ABE0C046AE
:1060F0005F150020861500207C130020FE1500206F
:10610000D9150020FE060020E8150020E915002022
:10611000C4150020EA150020EB150020771500209B
:10612000761500205C150020841500205A150020EB
:10613000FF150020EC1500208F1500208E15002083
:10614000ED15002014060020EE150020EF150020AC
:10615000D4130020D8130020A80F000094150020AD
:10616000F0150020F1150020F8140020CA130020BB
:10617000E2130020C41300201C1500205D15002030
:106180000616002081150020D4150020451500209A
:1061900004160020B54BAF215B5C002B40D0B34B05
:1061A0004A395B5C002B3BD0B14B1B78002B4AD0AB
:1061B000B04B1B78002B07D1AE4B64391970AE4B36
:1061C00000211970AD4B1A70A84BB021595CAA4B35
:1061D0001B78994218D9A94B1B789A420BD0A84B2F
:1061E0001A78A84B9A74A24A00231370A14A13701C
:1061F000A54A137027E0A54B1B78002BEFD1A14BCC
:106200005B7C002B1FD0EAE79D4B1A789D4B9A745C
:10621000974A00231370974A13709B4A137012E039
:10622000934B1B78002B03D0954B1A78954B9A749F
:106230008F4B00221A70944B1A7004E0944B00228A
:106240001A708B4B1A708F4B9A7C013A914B1C78C9
:10625000914B91008A189B18185D904B1870834BD6
:10626000D6229B5C002B0CD08D4B1B78002B08D0CA
:106270007E4B063A9B5C5843642101F00DFC874B32
:106280001870804B5B7D002B6FD0864B1B78002BEA
:1062900060D0854B1B78002B5CD1844B1B78002B86
:1062A00058D0834B1B78002B54D1824B1B78002B8A
:1062B00013D1804A013313707F4A13707F4A1370E1
:1062C0007F4B00221A707F4B1A707F4B1C707F4BE4
:1062D0001B78002B28D07E4A13707A4B1B787B4AA0
:1062E000D25C002A02D1764A002111705A1C7949E9
:1062F00009788A4224DA724A1178754A1278043A87
:10630000914203DA704A127894422ED06C4A0021EE
:1063100011700133DBB26B4A13706C4AD35C002BF3
:1063200008D06B4A137020E0504B84229A5C684B73
:106330001A70D2E74D4B84229A5C654B1A7014E0B8
:106340005F4B1A78624B1B789A420ED35A4B00224D
:106350001A700AE0574B1B78002B06D0554A0023D1
:106360001370554A1370554A1370574B1C703F4BAE
:1063700063229B5C002B0AD04A4B1B78002B03D175
:10638000554B1B78002B4BD0544B01221A70544BA9
:10639000DB78DBB2534A1370344AB921525C002ACD
:1063A00042D0514AE12189004B4313802F4B832275
:1063B0009B5C002B09D04A4B5B79DBB24B4A1370D4
:1063C0005278934201D2494A53702E4B9B7C072B43
:1063D00003D02F4B1B78002B2BD0244BAE22985C84
:1063E0000A2101F059FBC0B2264B9872254C627C01
:1063F0003F4B9200D0583F4B198801F04DFBC1B282
:106400003D4B19703D4B1878FBF797FB3C4B1870D0
:10641000A37DDBB23B4AD25C3B4B1A70FFF7B1F96C
:106420002E4B00221A70B2E72F4A38494B43138093
:10643000BCE7144B5B7CDBB2354AD35C022B06D045
:10644000104A537CDBB22949CB5C9372CEE7314BC7
:106450001B78002BF4D0054BAE22985C0A2101F08A
:106460001BFBC0B2074B9872C0E7C0461406002061
:106470000616002001160020001600200716002036
:10648000C41500207C13002008160020C618002028
:10649000D4150020FE0600209C1500209915002030
:1064A000341500208115002087150020D915002003
:1064B000E8150020391500203A1500205C15002051
:1064C000841500204A150020FF06002054150020E6
:1064D0005A15002037150020821500208315002052
:1064E000C81500208B150020F81300200C16002082
:1064F00008150020EE1300202F1500202E15002077
:10650000FC06002094150020901500209B0500003B
:10651000E4150020E015002010B500F029FB1B4B0E
:106520001880FCF791FBFDF75DFAFCF7B3FB184B05
:10653000187800010A2101F0AFFA164B1870FEF727
:1065400001F8154B1A78511C197003231340022BC4
:1065500019D00AD8002B11D0012B11D1FDF7A2FAC6
:10656000FCF7E4FCFCF74EFD0AE0032B08D1FCF736
:10657000ADFB00F081F9FEF70BFF01E0FFF7DEF85D
:10658000FDF790FC10BDFEF74FF9F9E7001400206D
:10659000041800203B1500204215002030B589B0BA
:1065A00020220021684603F031FD2A4B1A682A4B4D
:1065B0009A4240D0294B284A1A60294A2221515C2C
:1065C00019712A21515C880009184800D88060217F
:1065D000515A19816221515C99720021D972107E41
:1065E0001873907D58739973D9736931515C19741C
:1065F0006821515C59746E21515C99746D21515C14
:10660000D9746B21515C19758721515C5975C3216F
:10661000515CD9756C21525C9A7569460A00180064
:1066200038C838C238C838C200230222094800F0EE
:1066300061FF09B030BD6C4602222100054800F020
:106640008DFF06490B00220031CA31C313CA13C3A0
:10665000EFE7C04600FF0010DDAA00007C13002019
:106660001406002030B589B06C462022002120009D
:1066700003F0CCFC074B2200190029C929C229C903
:1066800029C2002302222100034800F033FF09B091
:1066900030BDC0467C13002000FF001010B55F4BDA
:1066A00000E0013B002BFCD1FBF7F0F9002800D003
:1066B00001BE8020400000F0FFFF594B00245C60C9
:1066C0006A225A641C64A021C9050B68554803401E
:1066D0009732FF3213430B6053490B6803401A4350
:1066E0000A60FAF793FD00F0D7FFFBF735FEFBF7E2
:1066F00053FAFFF753FFFDF7E9FD4C4B1B793C3391
:106700004B4A13704B4B1C7000F0F2F94A4B0122BC
:106710009A604A4B00E0013B002BFCD1484BC6225B
:10672000920099580902090A8020C0050143995036
:1067300080210905196098584249084080210902C2
:106740000143995080218904196098583E490840B6
:1067500080210904014399508022D2041A603B4BE6
:106760001868FA21890001F097F9013880235B0449
:1067700098420DD2364A50603648036A1B021B0A03
:10678000C02109060B4303620023936007331360A3
:10679000A023DB050F22DA602F4A116B80235B00F8
:1067A0000B431363254B00E0013B002BFCD12B4B2B
:1067B0005A6801210A435A60294A9A60294B1A688B
:1067C000294B1A60254B264A9A60284B1B78002BD0
:1067D00019D0224B224A9A60254B1B78002B15D1E9
:1067E000204B1A68234B1B88D31A0A2B11D81D4B38
:1067F0001A681D4B1B68D31A192BE3D91A4B1A6060
:10680000FFF78AFEDEE7FDF7C7FFE2E7FDF760FF6F
:10681000E6E7184B1A8000F0E5F8E8E7804F120031
:1068200000000340FFFCFFFF0000044814060020A6
:106830009C1700200E16002000000150C0D401005B
:1068400000E100E0FF00FFFFFFFF00FFFC3F002032
:1068500010E000E000ED00E0000001400000024018
:10686000FECAADABA8180020141600209615002013
:10687000CF1800201016002070B58CB0484B1B7844
:10688000022B19D00CB070BD464BA600F05801F099
:1068900003F906AB9851A20006ABD358ED180134AA
:1068A000052C0CDC404B6200D15A0029ECD1A3002E
:1068B00006AA01319950EEE700240025F0E7002DEB
:1068C00003D00024C026760114E0354B04221A7050
:1068D000D8E7A20006ABD0580004290001F0DCF88C
:1068E00080B262006B46D052B6B203A956528019EC
:1068F00006B20134052CECDD8C235B029E4205D0F0
:106900009A1B6B465B899B186A465381002209E0FB
:1069100053006946585A2549585203A9585A2449E0
:1069200058520132052AF3DD1D4B05221A7003ABC4
:106930001A88803212121F490A805A888032121235
:106940001D490A809A88803212121C490A80DA880E
:10695000803212121A490A801A8980321212194999
:106960000A805B8980331B12174A13806B461A8892
:10697000164B1A806B465A88154B1A806B469A88BC
:10698000144B1A806B46DA88134B1A806B461A89AF
:10699000124B1A806B465A89114B1A8072E7C04617
:1069A000961700207C170020701700202807002071
:1069B0001C070020181600201A1600201C160020A4
:1069C0001E1600202016002022160020DC170020B2
:1069D000DE170020E0170020E2170020E417002057
:1069E000E617002030B51D4B1B78002B35D11C4B12
:1069F000E022920099580905090D1A48825812059B
:106A0000120DE12080001B581B051B0D164801606C
:106A100016480260164803604802164C2568E901D2
:106A2000491B0918C8092060090C1348018051024C
:106A300012480468E201121B5218D1090160120CBD
:106A40000F490A805A020F490868C3011B1A9B1894
:106A5000DA090A601B0C0C4A138030BD06070020BF
:106A600000080348000403482C17002030170020BA
:106A700034170020340700200C07002038070020BE
:106A80000E0700203C070020100700200D4B0122BC
:106A90001A700D4B196BFF320A431A631A6B0B49BC
:106AA0000A401A6309E0084B196B802252000A431E
:106AB0001A631A6B05490A401A63054B9B68DB078A
:106AC000F1D570471807002000000140FFFEFFFFCE
:106AD000000100500323034A1361034A1361034A70
